{
  "contractName": "Game",
  "abi": [
    {
      "anonymous": false,
      "inputs": [
        {
          "indexed": false,
          "internalType": "address",
          "name": "player",
          "type": "address"
        },
        {
          "indexed": false,
          "internalType": "uint256",
          "name": "value",
          "type": "uint256"
        },
        {
          "indexed": false,
          "internalType": "bool",
          "name": "hasWon",
          "type": "bool"
        }
      ],
      "name": "BetPlaced",
      "type": "event"
    },
    {
      "inputs": [],
      "name": "placeBet",
      "outputs": [],
      "stateMutability": "payable",
      "type": "function"
    }
  ],
  "bytecode": "0x608060405260008055600060015534801561001957600080fd5b5061022e806100296000396000f3fe60806040526004361061001e5760003560e01c8063f90f456014610023575b600080fd5b61002b61002d565b005b60006101f461003a6101af565b10159050801561013a5760003373ffffffffffffffffffffffffffffffffffffffff166002340260405180600001905060006040518083038185875af1925050503d80600081146100a7576040519150601f19603f3d011682016040523d82523d6000602084013e6100ac565b606091505b5050905080610123576040517f08c379a000000000000000000000000000000000000000000000000000000000815260040180806020018281038252600f8152602001807f5472616e73666572206661696c6564000000000000000000000000000000000081525060200191505060405180910390fd5b60008081548092919060010191905055505061014d565b6001600081548092919060010191905055505b7ff8e99859e696debf4ef1752d671f759f7f63a1116efe995d789edfb3849c3549333483604051808473ffffffffffffffffffffffffffffffffffffffff1681526020018381526020018215158152602001935050505060405180910390a150565b600080444260405160200180838152602001828152602001925050506040516020818303038152906040528051906020012060001c90506103e881816101f157fe5b069150509056fea2646970667358221220dabb8bd2cdfd4ddba7c80883765d026d90def85a6c857926bc2cf3784ab1355e64736f6c63430007010033",
  "immutableReferences": {},
  "source": "pragma solidity 0.7.1;\n\ncontract Game {\n    uint256 totalGamesPlayerWon = 0;\n    uint256 totalGamesPlayerLost = 0;\n    event BetPlaced(address player, uint256 value, bool hasWon);\n\n    function placeBet() external payable {\n        bool hasWon = random() >= 500;\n\n        if (hasWon) {\n            (bool success, ) = msg.sender.call{ value: msg.value * 2 }('');\n            require(success, \"Transfer failed\");\n            totalGamesPlayerWon++;\n        } else {\n            totalGamesPlayerLost++;\n        }\n        \n        emit BetPlaced(msg.sender, msg.value, hasWon);\n    }\n\n    function random() private view returns (uint) {\n        uint randomHash = uint(keccak256(abi.encodePacked(block.difficulty, block.timestamp)));\n        return randomHash % 1000;\n    } \n}",
  "sourcePath": "/Users/christophe/Development/solidity/thegraph_test1/example-subgraph/contracts/Game.sol",
  "compiler": {
    "name": "solc",
    "version": "0.7.1+commit.f4a555be.Emscripten.clang"
  },
  "schemaVersion": "3.4.4",
  "updatedAt": "2022-02-01T12:48:35.451Z",
  "devdoc": {
    "kind": "dev",
    "methods": {},
    "version": 1
  },
  "userdoc": {
    "kind": "user",
    "methods": {},
    "version": 1
  }
}